{
  "contractName": "Exchange",
  "abi": [
    {
      "inputs": [
        {
          "internalType": "address",
          "name": "_feeAccount",
          "type": "address"
        },
        {
          "internalType": "uint256",
          "name": "_feePercent",
          "type": "uint256"
        }
      ],
      "stateMutability": "nonpayable",
      "type": "constructor"
    },
    {
      "anonymous": false,
      "inputs": [
        {
          "indexed": false,
          "internalType": "uint256",
          "name": "id",
          "type": "uint256"
        },
        {
          "indexed": false,
          "internalType": "address",
          "name": "user",
          "type": "address"
        },
        {
          "indexed": false,
          "internalType": "address",
          "name": "tokenGet",
          "type": "address"
        },
        {
          "indexed": false,
          "internalType": "uint256",
          "name": "amountGet",
          "type": "uint256"
        },
        {
          "indexed": false,
          "internalType": "address",
          "name": "tokenGive",
          "type": "address"
        },
        {
          "indexed": false,
          "internalType": "uint256",
          "name": "amountGive",
          "type": "uint256"
        },
        {
          "indexed": false,
          "internalType": "uint256",
          "name": "timestamp",
          "type": "uint256"
        }
      ],
      "name": "Cancel",
      "type": "event"
    },
    {
      "anonymous": false,
      "inputs": [
        {
          "indexed": false,
          "internalType": "address",
          "name": "token",
          "type": "address"
        },
        {
          "indexed": false,
          "internalType": "address",
          "name": "user",
          "type": "address"
        },
        {
          "indexed": false,
          "internalType": "uint256",
          "name": "amount",
          "type": "uint256"
        },
        {
          "indexed": false,
          "internalType": "uint256",
          "name": "balance",
          "type": "uint256"
        }
      ],
      "name": "Deposit",
      "type": "event"
    },
    {
      "anonymous": false,
      "inputs": [
        {
          "indexed": false,
          "internalType": "uint256",
          "name": "id",
          "type": "uint256"
        },
        {
          "indexed": false,
          "internalType": "address",
          "name": "user",
          "type": "address"
        },
        {
          "indexed": false,
          "internalType": "address",
          "name": "tokenGet",
          "type": "address"
        },
        {
          "indexed": false,
          "internalType": "uint256",
          "name": "amountGet",
          "type": "uint256"
        },
        {
          "indexed": false,
          "internalType": "address",
          "name": "tokenGive",
          "type": "address"
        },
        {
          "indexed": false,
          "internalType": "uint256",
          "name": "amountGive",
          "type": "uint256"
        },
        {
          "indexed": false,
          "internalType": "uint256",
          "name": "timestamp",
          "type": "uint256"
        }
      ],
      "name": "Order",
      "type": "event"
    },
    {
      "anonymous": false,
      "inputs": [
        {
          "indexed": false,
          "internalType": "uint256",
          "name": "id",
          "type": "uint256"
        },
        {
          "indexed": false,
          "internalType": "address",
          "name": "user",
          "type": "address"
        },
        {
          "indexed": false,
          "internalType": "address",
          "name": "tokenGet",
          "type": "address"
        },
        {
          "indexed": false,
          "internalType": "uint256",
          "name": "amountGet",
          "type": "uint256"
        },
        {
          "indexed": false,
          "internalType": "address",
          "name": "tokenGive",
          "type": "address"
        },
        {
          "indexed": false,
          "internalType": "uint256",
          "name": "amountGive",
          "type": "uint256"
        },
        {
          "indexed": false,
          "internalType": "uint256",
          "name": "timestamp",
          "type": "uint256"
        }
      ],
      "name": "Trade",
      "type": "event"
    },
    {
      "anonymous": false,
      "inputs": [
        {
          "indexed": false,
          "internalType": "address",
          "name": "token",
          "type": "address"
        },
        {
          "indexed": false,
          "internalType": "address",
          "name": "user",
          "type": "address"
        },
        {
          "indexed": false,
          "internalType": "uint256",
          "name": "amount",
          "type": "uint256"
        },
        {
          "indexed": false,
          "internalType": "uint256",
          "name": "balance",
          "type": "uint256"
        }
      ],
      "name": "WithDraw",
      "type": "event"
    },
    {
      "inputs": [],
      "name": "feeAccount",
      "outputs": [
        {
          "internalType": "address",
          "name": "",
          "type": "address"
        }
      ],
      "stateMutability": "view",
      "type": "function",
      "constant": true
    },
    {
      "inputs": [],
      "name": "feePercent",
      "outputs": [
        {
          "internalType": "uint256",
          "name": "",
          "type": "uint256"
        }
      ],
      "stateMutability": "view",
      "type": "function",
      "constant": true
    },
    {
      "inputs": [
        {
          "internalType": "uint256",
          "name": "",
          "type": "uint256"
        }
      ],
      "name": "orderCancel",
      "outputs": [
        {
          "internalType": "bool",
          "name": "",
          "type": "bool"
        }
      ],
      "stateMutability": "view",
      "type": "function",
      "constant": true
    },
    {
      "inputs": [],
      "name": "orderCount",
      "outputs": [
        {
          "internalType": "uint256",
          "name": "",
          "type": "uint256"
        }
      ],
      "stateMutability": "view",
      "type": "function",
      "constant": true
    },
    {
      "inputs": [
        {
          "internalType": "uint256",
          "name": "",
          "type": "uint256"
        }
      ],
      "name": "orderFill",
      "outputs": [
        {
          "internalType": "bool",
          "name": "",
          "type": "bool"
        }
      ],
      "stateMutability": "view",
      "type": "function",
      "constant": true
    },
    {
      "inputs": [
        {
          "internalType": "uint256",
          "name": "",
          "type": "uint256"
        }
      ],
      "name": "orders",
      "outputs": [
        {
          "internalType": "uint256",
          "name": "id",
          "type": "uint256"
        },
        {
          "internalType": "address",
          "name": "user",
          "type": "address"
        },
        {
          "internalType": "address",
          "name": "tokenGet",
          "type": "address"
        },
        {
          "internalType": "uint256",
          "name": "amountGet",
          "type": "uint256"
        },
        {
          "internalType": "address",
          "name": "tokenGive",
          "type": "address"
        },
        {
          "internalType": "uint256",
          "name": "amountGive",
          "type": "uint256"
        },
        {
          "internalType": "uint256",
          "name": "timestamp",
          "type": "uint256"
        }
      ],
      "stateMutability": "view",
      "type": "function",
      "constant": true
    },
    {
      "inputs": [
        {
          "internalType": "address",
          "name": "",
          "type": "address"
        },
        {
          "internalType": "address",
          "name": "",
          "type": "address"
        }
      ],
      "name": "tokens",
      "outputs": [
        {
          "internalType": "uint256",
          "name": "",
          "type": "uint256"
        }
      ],
      "stateMutability": "view",
      "type": "function",
      "constant": true
    },
    {
      "inputs": [],
      "name": "depositEther",
      "outputs": [],
      "stateMutability": "payable",
      "type": "function",
      "payable": true
    },
    {
      "inputs": [
        {
          "internalType": "address",
          "name": "_token",
          "type": "address"
        },
        {
          "internalType": "uint256",
          "name": "_amount",
          "type": "uint256"
        }
      ],
      "name": "depositToken",
      "outputs": [],
      "stateMutability": "nonpayable",
      "type": "function"
    },
    {
      "inputs": [
        {
          "internalType": "uint256",
          "name": "_amount",
          "type": "uint256"
        }
      ],
      "name": "withdrawEther",
      "outputs": [],
      "stateMutability": "nonpayable",
      "type": "function"
    },
    {
      "inputs": [
        {
          "internalType": "address",
          "name": "_token",
          "type": "address"
        },
        {
          "internalType": "uint256",
          "name": "_amount",
          "type": "uint256"
        }
      ],
      "name": "withdrawToken",
      "outputs": [],
      "stateMutability": "nonpayable",
      "type": "function"
    },
    {
      "inputs": [
        {
          "internalType": "address",
          "name": "_token",
          "type": "address"
        },
        {
          "internalType": "address",
          "name": "_user",
          "type": "address"
        }
      ],
      "name": "balanceOf",
      "outputs": [
        {
          "internalType": "uint256",
          "name": "",
          "type": "uint256"
        }
      ],
      "stateMutability": "view",
      "type": "function",
      "constant": true
    },
    {
      "inputs": [
        {
          "internalType": "address",
          "name": "_tokenGet",
          "type": "address"
        },
        {
          "internalType": "uint256",
          "name": "_amountGet",
          "type": "uint256"
        },
        {
          "internalType": "address",
          "name": "_tokenGive",
          "type": "address"
        },
        {
          "internalType": "uint256",
          "name": "_amountGive",
          "type": "uint256"
        }
      ],
      "name": "makeOrder",
      "outputs": [],
      "stateMutability": "nonpayable",
      "type": "function"
    },
    {
      "inputs": [
        {
          "internalType": "uint256",
          "name": "_id",
          "type": "uint256"
        }
      ],
      "name": "cancelOrder",
      "outputs": [],
      "stateMutability": "nonpayable",
      "type": "function"
    },
    {
      "inputs": [
        {
          "internalType": "uint256",
          "name": "_id",
          "type": "uint256"
        }
      ],
      "name": "fillOrder",
      "outputs": [],
      "stateMutability": "nonpayable",
      "type": "function"
    }
  ],
  "bytecode": "0x60806040523480156200001157600080fd5b50604051620024793803806200247983398181016040528101906200003791906200012b565b816000806101000a81548173ffffffffffffffffffffffffffffffffffffffff021916908373ffffffffffffffffffffffffffffffffffffffff16021790555080600181905550505062000172565b600080fd5b600073ffffffffffffffffffffffffffffffffffffffff82169050919050565b6000620000b8826200008b565b9050919050565b620000ca81620000ab565b8114620000d657600080fd5b50565b600081519050620000ea81620000bf565b92915050565b6000819050919050565b6200010581620000f0565b81146200011157600080fd5b50565b6000815190506200012581620000fa565b92915050565b6000806040838503121562000145576200014462000086565b5b60006200015585828601620000d9565b9250506020620001688582860162000114565b9150509250929050565b6122f780620001826000396000f3fe608060405260043610610105576000357c0100000000000000000000000000000000000000000000000000000000900480637fd6f15c116100a75780639e281a98116100765780639e281a98146102dc578063a85c38ef14610305578063c348ac6514610348578063f7888aec1461038557610105565b80637fd6f15c1461024157806398ea5fca1461026c5780639a5c90aa146102765780639bc896f91461029f57610105565b8063508493bc116100e3578063508493bc14610187578063514fcac7146101c457806365e17c9d146101ed57806367b830ad1461021857610105565b80632453ffa81461010a578063338b5dea146101355780633bed33ce1461015e575b600080fd5b34801561011657600080fd5b5061011f6103c2565b60405161012c9190611c5c565b60405180910390f35b34801561014157600080fd5b5061015c60048036038101906101579190611d06565b6103c8565b005b34801561016a57600080fd5b5061018560048036038101906101809190611d46565b61066b565b005b34801561019357600080fd5b506101ae60048036038101906101a99190611d73565b610900565b6040516101bb9190611c5c565b60405180910390f35b3480156101d057600080fd5b506101eb60048036038101906101e69190611d46565b610925565b005b3480156101f957600080fd5b50610202610b08565b60405161020f9190611dc2565b60405180910390f35b34801561022457600080fd5b5061023f600480360381019061023a9190611d46565b610b2c565b005b34801561024d57600080fd5b506102566113ae565b6040516102639190611c5c565b60405180910390f35b6102746113b4565b005b34801561028257600080fd5b5061029d60048036038101906102989190611ddd565b611578565b005b3480156102ab57600080fd5b506102c660048036038101906102c19190611d46565b6117b0565b6040516102d39190611e5f565b60405180910390f35b3480156102e857600080fd5b5061030360048036038101906102fe9190611d06565b6117d0565b005b34801561031157600080fd5b5061032c60048036038101906103279190611d46565b611afa565b60405161033f9796959493929190611e7a565b60405180910390f35b34801561035457600080fd5b5061036f600480360381019061036a9190611d46565b611b9c565b60405161037c9190611e5f565b60405180910390f35b34801561039157600080fd5b506103ac60048036038101906103a79190611d73565b611bbc565b6040516103b99190611c5c565b60405180910390f35b60065481565b600073ffffffffffffffffffffffffffffffffffffffff168273ffffffffffffffffffffffffffffffffffffffff160361040157600080fd5b8173ffffffffffffffffffffffffffffffffffffffff166323b872dd3330846040518463ffffffff167c010000000000000000000000000000000000000000000000000000000002815260040161045a93929190611ee9565b6020604051808303816000875af1158015610479573d6000803e3d6000fd5b505050506040513d601f19601f8201168201806040525081019061049d9190611f4c565b6104a657600080fd5b80600260008473ffffffffffffffffffffffffffffffffffffffff1673ffffffffffffffffffffffffffffffffffffffff16815260200190815260200160002060003373ffffffffffffffffffffffffffffffffffffffff1673ffffffffffffffffffffffffffffffffffffffff1681526020019081526020016000205461052e9190611fa8565b600260008473ffffffffffffffffffffffffffffffffffffffff1673ffffffffffffffffffffffffffffffffffffffff16815260200190815260200160002060003373ffffffffffffffffffffffffffffffffffffffff1673ffffffffffffffffffffffffffffffffffffffff168152602001908152602001600020819055507fdcbc1c05240f31ff3ad067ef1ee35ce4997762752e3a095284754544f4c709d7823383600260008773ffffffffffffffffffffffffffffffffffffffff1673ffffffffffffffffffffffffffffffffffffffff16815260200190815260200160002060003373ffffffffffffffffffffffffffffffffffffffff1673ffffffffffffffffffffffffffffffffffffffff1681526020019081526020016000205460405161065f9493929190611fdc565b60405180910390a15050565b80600260008073ffffffffffffffffffffffffffffffffffffffff1673ffffffffffffffffffffffffffffffffffffffff16815260200190815260200160002060003373ffffffffffffffffffffffffffffffffffffffff1673ffffffffffffffffffffffffffffffffffffffff1681526020019081526020016000205410156106f457600080fd5b80600260008073ffffffffffffffffffffffffffffffffffffffff1673ffffffffffffffffffffffffffffffffffffffff16815260200190815260200160002060003373ffffffffffffffffffffffffffffffffffffffff1673ffffffffffffffffffffffffffffffffffffffff1681526020019081526020016000205461077c9190612021565b600260008073ffffffffffffffffffffffffffffffffffffffff1673ffffffffffffffffffffffffffffffffffffffff16815260200190815260200160002060003373ffffffffffffffffffffffffffffffffffffffff1673ffffffffffffffffffffffffffffffffffffffff168152602001908152602001600020819055503373ffffffffffffffffffffffffffffffffffffffff166108fc829081150290604051600060405180830381858888f19350505050158015610842573d6000803e3d6000fd5b507f2ffdfede8e3142dc22c86f615731d1d79115cf0652b6880e40eb6ef76ed86da260003383600260008073ffffffffffffffffffffffffffffffffffffffff1673ffffffffffffffffffffffffffffffffffffffff16815260200190815260200160002060003373ffffffffffffffffffffffffffffffffffffffff1673ffffffffffffffffffffffffffffffffffffffff168152602001908152602001600020546040516108f59493929190611fdc565b60405180910390a150565b6002602052816000526040600020602052806000526040600020600091509150505481565b6000600360008381526020019081526020016000206040518060e0016040529081600082015481526020016001820160009054906101000a900473ffffffffffffffffffffffffffffffffffffffff1673ffffffffffffffffffffffffffffffffffffffff1673ffffffffffffffffffffffffffffffffffffffff1681526020016002820160009054906101000a900473ffffffffffffffffffffffffffffffffffffffff1673ffffffffffffffffffffffffffffffffffffffff1673ffffffffffffffffffffffffffffffffffffffff168152602001600382015481526020016004820160009054906101000a900473ffffffffffffffffffffffffffffffffffffffff1673ffffffffffffffffffffffffffffffffffffffff1673ffffffffffffffffffffffffffffffffffffffff16815260200160058201548152602001600682015481525050905081816000015114610a8157600080fd5b60016004600084815260200190815260200160002060006101000a81548160ff0219169083151502179055507f77de1da0be5f2d3b110d05c6694e5c4ff2d9da7cd23d84353ecf78c7b5acec618160000151338360400151846060015185608001518660a0015142604051610afc9796959493929190611e7a565b60405180910390a15050565b60008054906101000a900473ffffffffffffffffffffffffffffffffffffffff1681565b6000600360008381526020019081526020016000206040518060e0016040529081600082015481526020016001820160009054906101000a900473ffffffffffffffffffffffffffffffffffffffff1673ffffffffffffffffffffffffffffffffffffffff1673ffffffffffffffffffffffffffffffffffffffff1681526020016002820160009054906101000a900473ffffffffffffffffffffffffffffffffffffffff1673ffffffffffffffffffffffffffffffffffffffff1673ffffffffffffffffffffffffffffffffffffffff168152602001600382015481526020016004820160009054906101000a900473ffffffffffffffffffffffffffffffffffffffff1673ffffffffffffffffffffffffffffffffffffffff1673ffffffffffffffffffffffffffffffffffffffff16815260200160058201548152602001600682015481525050905081816000015114610c8857600080fd5b600060646001548360600151610c9e9190612055565b610ca891906120c6565b90508160a00151610cc183608001518460200151611bbc565b1015610d02576040517f08c379a0000000000000000000000000000000000000000000000000000000008152600401610cf99061217a565b60405180910390fd5b808260a00151610d129190611fa8565b610d2483604001518460200151611bbc565b1015610d65576040517f08c379a0000000000000000000000000000000000000000000000000000000008152600401610d5c9061220c565b60405180910390fd5b80826060015160026000856040015173ffffffffffffffffffffffffffffffffffffffff1673ffffffffffffffffffffffffffffffffffffffff16815260200190815260200160002060003373ffffffffffffffffffffffffffffffffffffffff1673ffffffffffffffffffffffffffffffffffffffff16815260200190815260200160002054610df69190612021565b610e009190612021565b60026000846040015173ffffffffffffffffffffffffffffffffffffffff1673ffffffffffffffffffffffffffffffffffffffff16815260200190815260200160002060003373ffffffffffffffffffffffffffffffffffffffff1673ffffffffffffffffffffffffffffffffffffffff168152602001908152602001600020819055508060026000846040015173ffffffffffffffffffffffffffffffffffffffff1673ffffffffffffffffffffffffffffffffffffffff16815260200190815260200160002060008060009054906101000a900473ffffffffffffffffffffffffffffffffffffffff1673ffffffffffffffffffffffffffffffffffffffff1673ffffffffffffffffffffffffffffffffffffffff16815260200190815260200160002054610f319190611fa8565b60026000846040015173ffffffffffffffffffffffffffffffffffffffff1673ffffffffffffffffffffffffffffffffffffffff16815260200190815260200160002060008060009054906101000a900473ffffffffffffffffffffffffffffffffffffffff1673ffffffffffffffffffffffffffffffffffffffff1673ffffffffffffffffffffffffffffffffffffffff16815260200190815260200160002081905550816060015160026000846040015173ffffffffffffffffffffffffffffffffffffffff1673ffffffffffffffffffffffffffffffffffffffff1681526020019081526020016000206000846020015173ffffffffffffffffffffffffffffffffffffffff1673ffffffffffffffffffffffffffffffffffffffff1681526020019081526020016000205461106a9190611fa8565b60026000846040015173ffffffffffffffffffffffffffffffffffffffff1673ffffffffffffffffffffffffffffffffffffffff1681526020019081526020016000206000846020015173ffffffffffffffffffffffffffffffffffffffff1673ffffffffffffffffffffffffffffffffffffffff168152602001908152602001600020819055508160a0015160026000846080015173ffffffffffffffffffffffffffffffffffffffff1673ffffffffffffffffffffffffffffffffffffffff16815260200190815260200160002060003373ffffffffffffffffffffffffffffffffffffffff1673ffffffffffffffffffffffffffffffffffffffff168152602001908152602001600020546111829190611fa8565b60026000846080015173ffffffffffffffffffffffffffffffffffffffff1673ffffffffffffffffffffffffffffffffffffffff16815260200190815260200160002060003373ffffffffffffffffffffffffffffffffffffffff1673ffffffffffffffffffffffffffffffffffffffff168152602001908152602001600020819055508160a0015160026000846080015173ffffffffffffffffffffffffffffffffffffffff1673ffffffffffffffffffffffffffffffffffffffff1681526020019081526020016000206000846020015173ffffffffffffffffffffffffffffffffffffffff1673ffffffffffffffffffffffffffffffffffffffff1681526020019081526020016000205461129a9190612021565b60026000846080015173ffffffffffffffffffffffffffffffffffffffff1673ffffffffffffffffffffffffffffffffffffffff1681526020019081526020016000206000846020015173ffffffffffffffffffffffffffffffffffffffff1673ffffffffffffffffffffffffffffffffffffffff1681526020019081526020016000208190555060016005600085815260200190815260200160002060006101000a81548160ff0219169083151502179055507faba0fc968824c4949185cfdd55a197a4d41616a98cc2d97fd34224ebcdf76744826000015183602001518460400151856060015186608001518760a00151426040516113a19796959493929190611e7a565b60405180910390a1505050565b60015481565b34600260008073ffffffffffffffffffffffffffffffffffffffff1673ffffffffffffffffffffffffffffffffffffffff16815260200190815260200160002060003373ffffffffffffffffffffffffffffffffffffffff1673ffffffffffffffffffffffffffffffffffffffff1681526020019081526020016000205461143c9190611fa8565b600260008073ffffffffffffffffffffffffffffffffffffffff1673ffffffffffffffffffffffffffffffffffffffff16815260200190815260200160002060003373ffffffffffffffffffffffffffffffffffffffff1673ffffffffffffffffffffffffffffffffffffffff168152602001908152602001600020819055507fdcbc1c05240f31ff3ad067ef1ee35ce4997762752e3a095284754544f4c709d760003334600260008073ffffffffffffffffffffffffffffffffffffffff1673ffffffffffffffffffffffffffffffffffffffff16815260200190815260200160002060003373ffffffffffffffffffffffffffffffffffffffff1673ffffffffffffffffffffffffffffffffffffffff1681526020019081526020016000205460405161156e9493929190611fdc565b60405180910390a1565b806115838333611bbc565b10156115c4576040517f08c379a00000000000000000000000000000000000000000000000000000000081526004016115bb90612278565b60405180910390fd5b60016006546115d39190611fa8565b6006819055506040518060e0016040528060065481526020013373ffffffffffffffffffffffffffffffffffffffff1681526020018573ffffffffffffffffffffffffffffffffffffffff1681526020018481526020018373ffffffffffffffffffffffffffffffffffffffff168152602001828152602001428152506003600060065481526020019081526020016000206000820151816000015560208201518160010160006101000a81548173ffffffffffffffffffffffffffffffffffffffff021916908373ffffffffffffffffffffffffffffffffffffffff16021790555060408201518160020160006101000a81548173ffffffffffffffffffffffffffffffffffffffff021916908373ffffffffffffffffffffffffffffffffffffffff1602179055506060820151816003015560808201518160040160006101000a81548173ffffffffffffffffffffffffffffffffffffffff021916908373ffffffffffffffffffffffffffffffffffffffff16021790555060a0820151816005015560c082015181600601559050507f9d33853d43e3607b4cc01fdc78338ff2dca6fef7db9232dae6d3eb55fbc3b1096006543386868686426040516117a29796959493929190611e7a565b60405180910390a150505050565b60046020528060005260406000206000915054906101000a900460ff1681565b600073ffffffffffffffffffffffffffffffffffffffff168273ffffffffffffffffffffffffffffffffffffffff160361180957600080fd5b80600260008473ffffffffffffffffffffffffffffffffffffffff1673ffffffffffffffffffffffffffffffffffffffff16815260200190815260200160002060003373ffffffffffffffffffffffffffffffffffffffff1673ffffffffffffffffffffffffffffffffffffffff16815260200190815260200160002054101561189257600080fd5b80600260008473ffffffffffffffffffffffffffffffffffffffff1673ffffffffffffffffffffffffffffffffffffffff16815260200190815260200160002060003373ffffffffffffffffffffffffffffffffffffffff1673ffffffffffffffffffffffffffffffffffffffff1681526020019081526020016000205461191a9190612021565b600260008473ffffffffffffffffffffffffffffffffffffffff1673ffffffffffffffffffffffffffffffffffffffff16815260200190815260200160002060003373ffffffffffffffffffffffffffffffffffffffff1673ffffffffffffffffffffffffffffffffffffffff168152602001908152602001600020819055508173ffffffffffffffffffffffffffffffffffffffff1663a9059cbb33836040518363ffffffff167c01000000000000000000000000000000000000000000000000000000000281526004016119f1929190612298565b6020604051808303816000875af1158015611a10573d6000803e3d6000fd5b505050506040513d601f19601f82011682018060405250810190611a349190611f4c565b611a3d57600080fd5b7f2ffdfede8e3142dc22c86f615731d1d79115cf0652b6880e40eb6ef76ed86da2823383600260008773ffffffffffffffffffffffffffffffffffffffff1673ffffffffffffffffffffffffffffffffffffffff16815260200190815260200160002060003373ffffffffffffffffffffffffffffffffffffffff1673ffffffffffffffffffffffffffffffffffffffff16815260200190815260200160002054604051611aee9493929190611fdc565b60405180910390a15050565b60036020528060005260406000206000915090508060000154908060010160009054906101000a900473ffffffffffffffffffffffffffffffffffffffff16908060020160009054906101000a900473ffffffffffffffffffffffffffffffffffffffff16908060030154908060040160009054906101000a900473ffffffffffffffffffffffffffffffffffffffff16908060050154908060060154905087565b60056020528060005260406000206000915054906101000a900460ff1681565b6000600260008473ffffffffffffffffffffffffffffffffffffffff1673ffffffffffffffffffffffffffffffffffffffff16815260200190815260200160002060008373ffffffffffffffffffffffffffffffffffffffff1673ffffffffffffffffffffffffffffffffffffffff16815260200190815260200160002054905092915050565b6000819050919050565b611c5681611c43565b82525050565b6000602082019050611c716000830184611c4d565b92915050565b600080fd5b600073ffffffffffffffffffffffffffffffffffffffff82169050919050565b6000611ca782611c7c565b9050919050565b611cb781611c9c565b8114611cc257600080fd5b50565b600081359050611cd481611cae565b92915050565b611ce381611c43565b8114611cee57600080fd5b50565b600081359050611d0081611cda565b92915050565b60008060408385031215611d1d57611d1c611c77565b5b6000611d2b85828601611cc5565b9250506020611d3c85828601611cf1565b9150509250929050565b600060208284031215611d5c57611d5b611c77565b5b6000611d6a84828501611cf1565b91505092915050565b60008060408385031215611d8a57611d89611c77565b5b6000611d9885828601611cc5565b9250506020611da985828601611cc5565b9150509250929050565b611dbc81611c9c565b82525050565b6000602082019050611dd76000830184611db3565b92915050565b60008060008060808587031215611df757611df6611c77565b5b6000611e0587828801611cc5565b9450506020611e1687828801611cf1565b9350506040611e2787828801611cc5565b9250506060611e3887828801611cf1565b91505092959194509250565b60008115159050919050565b611e5981611e44565b82525050565b6000602082019050611e746000830184611e50565b92915050565b600060e082019050611e8f600083018a611c4d565b611e9c6020830189611db3565b611ea96040830188611db3565b611eb66060830187611c4d565b611ec36080830186611db3565b611ed060a0830185611c4d565b611edd60c0830184611c4d565b98975050505050505050565b6000606082019050611efe6000830186611db3565b611f0b6020830185611db3565b611f186040830184611c4d565b949350505050565b611f2981611e44565b8114611f3457600080fd5b50565b600081519050611f4681611f20565b92915050565b600060208284031215611f6257611f61611c77565b5b6000611f7084828501611f37565b91505092915050565b7f4e487b7100000000000000000000000000000000000000000000000000000000600052601160045260246000fd5b6000611fb382611c43565b9150611fbe83611c43565b9250828201905080821115611fd657611fd5611f79565b5b92915050565b6000608082019050611ff16000830187611db3565b611ffe6020830186611db3565b61200b6040830185611c4d565b6120186060830184611c4d565b95945050505050565b600061202c82611c43565b915061203783611c43565b925082820390508181111561204f5761204e611f79565b5b92915050565b600061206082611c43565b915061206b83611c43565b925082820261207981611c43565b915082820484148315176120905761208f611f79565b5b5092915050565b7f4e487b7100000000000000000000000000000000000000000000000000000000600052601260045260246000fd5b60006120d182611c43565b91506120dc83611c43565b9250826120ec576120eb612097565b5b828204905092915050565b600082825260208201905092915050565b7fe5889be5bbbae8aea2e58d95e79a84e794a8e688b7e79a84e4bd99e9a29de4b860008201527f8de8b6b300000000000000000000000000000000000000000000000000000000602082015250565b60006121646024836120f7565b915061216f82612108565b604082019050919050565b6000602082019050818103600083015261219381612157565b9050919050565b7fe5a1abe58585e8aea2e58d95e79a84e794a8e688b7e79a84e4bd99e9a29de4b860008201527f8de8b6b300000000000000000000000000000000000000000000000000000000602082015250565b60006121f66024836120f7565b91506122018261219a565b604082019050919050565b60006020820190508181036000830152612225816121e9565b9050919050565b7fe5889be5bbbae8aea2e58d95e697b6e4bd99e9a29de4b88de8b6b30000000000600082015250565b6000612262601b836120f7565b915061226d8261222c565b602082019050919050565b6000602082019050818103600083015261229181612255565b9050919050565b60006040820190506122ad6000830185611db3565b6122ba6020830184611c4d565b939250505056fea264697066735822122062dab709cd05a4a79c73e6ddd913ab60fb176d31a5b2a08063a8ff7360c6193a64736f6c63430008150033",
  "immutableReferences": {},
  "source": "pragma solidity >=0.4.16 <0.9.0;\r\n\r\nimport \"./HflToken.sol\";\r\n\r\ncontract Exchange {\r\n    // \r\n    address public feeAccount;\r\n    // \r\n    uint256 public feePercent;\r\n\r\n    // \r\n    address constant ETHER = address(0);\r\n\r\n    // \r\n    mapping(address => mapping(address => uint256)) public tokens;\r\n\r\n\r\n    // \r\n    struct _Order {\r\n        uint256 id;\r\n        address user;\r\n        address tokenGet;\r\n        uint256 amountGet;\r\n\r\n        address tokenGive;\r\n        uint256 amountGive;\r\n\r\n        uint256 timestamp;\r\n    }\r\n\r\n    // _Order[] public orderlist;\r\n\r\n    mapping(uint256 => _Order) public orders;\r\n\r\n    mapping(uint256 => bool) public orderCancel;\r\n\r\n    mapping(uint256 => bool) public orderFill;\r\n\r\n    uint256 public orderCount;\r\n\r\n    // \r\n    constructor(address _feeAccount, uint256 _feePercent) {\r\n        feeAccount = _feeAccount;\r\n        feePercent = _feePercent;\r\n    }\r\n\r\n    // \r\n    function depositEther() public payable {\r\n        // msg.sender\r\n        // msg.value\r\n        tokens[ETHER][msg.sender] = tokens[ETHER][msg.sender] + msg.value;\r\n        emit Deposit(ETHER, msg.sender, msg.value, tokens[ETHER][msg.sender]);\r\n    }\r\n\r\n    event Deposit(address token, address user, uint256 amount, uint256 balance);\r\n\r\n    event WithDraw(\r\n        address token,\r\n        address user,\r\n        uint256 amount,\r\n        uint256 balance\r\n    );\r\n\r\n    // \r\n    event Order(\r\n        uint256 id,\r\n        address user,\r\n        address tokenGet,\r\n        uint256 amountGet,\r\n        address tokenGive,\r\n        uint256 amountGive,\r\n        uint256 timestamp\r\n    );\r\n\r\n    // \r\n    event Cancel(\r\n        uint256 id,\r\n        address user,\r\n        address tokenGet,\r\n        uint256 amountGet,\r\n        address tokenGive,\r\n        uint256 amountGive,\r\n        uint256 timestamp\r\n    );\r\n\r\n   // \r\n    event Trade(\r\n        uint256 id,\r\n        address user,\r\n        address tokenGet,\r\n        uint256 amountGet,\r\n        address tokenGive,\r\n        uint256 amountGive,\r\n        uint256 timestamp\r\n    );\r\n\r\n    // \r\n    function depositToken(address _token, uint256 _amount) public {\r\n        require(_token != ETHER);\r\n        // \r\n        require(\r\n            HflToken(_token).transferFrom(msg.sender, address(this), _amount)\r\n        );\r\n        tokens[_token][msg.sender] = tokens[_token][msg.sender] + _amount;\r\n        emit Deposit(_token, msg.sender, _amount, tokens[_token][msg.sender]);\r\n    }\r\n\r\n    // \r\n    function withdrawEther(uint256 _amount) public {\r\n        require(tokens[ETHER][msg.sender] >= _amount);\r\n        tokens[ETHER][msg.sender] = tokens[ETHER][msg.sender] - _amount;\r\n        // \r\n        payable(msg.sender).transfer(_amount);\r\n\r\n        emit WithDraw(ETHER, msg.sender, _amount, tokens[ETHER][msg.sender]);\r\n    }\r\n\r\n    // \r\n    function withdrawToken(address _token, uint256 _amount) public {\r\n        require(_token != ETHER);\r\n        require(tokens[_token][msg.sender] >= _amount);\r\n\r\n        tokens[_token][msg.sender] = tokens[_token][msg.sender] - _amount;\r\n        // \r\n        require(HflToken(_token).transfer(msg.sender, _amount));\r\n        emit WithDraw(_token, msg.sender, _amount, tokens[_token][msg.sender]);\r\n    }\r\n\r\n    // \r\n    function balanceOf(\r\n        address _token,\r\n        address _user\r\n    ) public view returns (uint256) {\r\n        return tokens[_token][_user];\r\n    }\r\n\r\n    // makeOrder\r\n    function makeOrder(address _tokenGet,\r\n        uint256 _amountGet,\r\n        address _tokenGive,\r\n        uint256 _amountGive) public {\r\n\r\n        require(balanceOf(_tokenGive, msg.sender) >= _amountGive, unicode\"\");    \r\n\r\n        orderCount = orderCount + 1;\r\n        orders[orderCount] = _Order(orderCount, msg.sender, _tokenGet, _amountGet, _tokenGive, _amountGive, block.timestamp);\r\n\r\n        // \r\n        emit Order(orderCount, msg.sender, _tokenGet, _amountGet, _tokenGive, _amountGive, block.timestamp);\r\n    }\r\n\r\n    // cancelOrder\r\n    function cancelOrder(uint256 _id) public {\r\n        _Order memory myorder = orders[_id];\r\n        require(myorder.id == _id);\r\n        orderCancel[_id] = true;\r\n\r\n        emit Cancel(myorder.id, msg.sender, myorder.tokenGet, myorder.amountGet, myorder.tokenGive, myorder.amountGive, block.timestamp);\r\n    }\r\n\r\n    // fillOrder\r\n    function fillOrder(uint256 _id) public {\r\n        _Order memory myorder = orders[_id];\r\n        require(myorder.id == _id);\r\n\r\n        //   && \r\n        /**\r\n        xiaoming ,makeorder,\r\n        100 KWT ==> 1 ether\r\n        \r\n        xiaoming 1 ether\r\n        xiaoming 100KWT\r\n\r\n        -------------------------------\r\n\r\n        msg.sender,  fillorder\r\n        msg.sender1 ether\r\n        msg.sender  100KWT\r\n        */\r\n   \r\n\r\n        // require(_id > 0 && _id <= orderCount);\r\n        // require(!orderCancel[_id]);\r\n\r\n        // _Order memory myorder = orders[_id];\r\n        // uint256 _feeAmount = ((myorder.amountGet * feePercent) / 100);\r\n\r\n        uint256 feeAmount = myorder.amountGet * feePercent / 100;\r\n\r\n        require(balanceOf(myorder.tokenGive, myorder.user) >= myorder.amountGive, unicode\"\");    \r\n        require(balanceOf(myorder.tokenGet, myorder.user) >= myorder.amountGive + feeAmount, unicode\"\");    \r\n\r\n\r\n        // tokens\r\n        tokens[myorder.tokenGet][msg.sender] = tokens[myorder.tokenGet][msg.sender] - myorder.amountGet - feeAmount;\r\n       \r\n        tokens[myorder.tokenGet][feeAccount] = tokens[myorder.tokenGet][feeAccount] + feeAmount;\r\n\r\n        tokens[myorder.tokenGet][myorder.user] = tokens[myorder.tokenGet][myorder.user] + myorder.amountGet;\r\n\r\n        // \r\n        tokens[myorder.tokenGive][msg.sender] = tokens[myorder.tokenGive][msg.sender] + myorder.amountGive;\r\n        tokens[myorder.tokenGive][myorder.user] = tokens[myorder.tokenGive][myorder.user] - myorder.amountGive;\r\n\r\n        orderFill[_id] = true;\r\n\r\n        emit Trade(myorder.id, myorder.user, myorder.tokenGet, myorder.amountGet, myorder.tokenGive, myorder.amountGive, block.timestamp);\r\n\r\n    }\r\n\r\n\r\n\r\n\r\n}\r\n",
  "sourcePath": "D:\\project\\idea_work\\own\\ganache-demo\\code\\contracts\\Exchange.sol",
  "compiler": {
    "name": "solc",
    "version": "0.8.21+commit.d9974bed.Emscripten.clang"
  },
  "schemaVersion": "3.4.16",
  "updatedAt": "2025-09-08T11:57:28.874Z",
  "networkType": "ethereum",
  "devdoc": {
    "kind": "dev",
    "methods": {},
    "version": 1
  },
  "userdoc": {
    "kind": "user",
    "methods": {},
    "version": 1
  }
}