{
  "contractName": "Exchange",
  "abi": [
    {
      "inputs": [
        {
          "internalType": "address",
          "name": "_feeAccount",
          "type": "address"
        },
        {
          "internalType": "uint256",
          "name": "_feePercent",
          "type": "uint256"
        }
      ],
      "stateMutability": "nonpayable",
      "type": "constructor"
    },
    {
      "anonymous": false,
      "inputs": [
        {
          "indexed": false,
          "internalType": "address",
          "name": "token",
          "type": "address"
        },
        {
          "indexed": false,
          "internalType": "address",
          "name": "user",
          "type": "address"
        },
        {
          "indexed": false,
          "internalType": "uint256",
          "name": "amount",
          "type": "uint256"
        },
        {
          "indexed": false,
          "internalType": "uint256",
          "name": "balance",
          "type": "uint256"
        }
      ],
      "name": "Deposit",
      "type": "event"
    },
    {
      "anonymous": false,
      "inputs": [
        {
          "indexed": false,
          "internalType": "uint256",
          "name": "id",
          "type": "uint256"
        },
        {
          "indexed": false,
          "internalType": "address",
          "name": "user",
          "type": "address"
        },
        {
          "indexed": false,
          "internalType": "address",
          "name": "tokenGet",
          "type": "address"
        },
        {
          "indexed": false,
          "internalType": "uint256",
          "name": "amountGet",
          "type": "uint256"
        },
        {
          "indexed": false,
          "internalType": "address",
          "name": "tokenGive",
          "type": "address"
        },
        {
          "indexed": false,
          "internalType": "uint256",
          "name": "amountGive",
          "type": "uint256"
        },
        {
          "indexed": false,
          "internalType": "uint256",
          "name": "timestamp",
          "type": "uint256"
        }
      ],
      "name": "Order",
      "type": "event"
    },
    {
      "anonymous": false,
      "inputs": [
        {
          "indexed": false,
          "internalType": "address",
          "name": "token",
          "type": "address"
        },
        {
          "indexed": false,
          "internalType": "address",
          "name": "user",
          "type": "address"
        },
        {
          "indexed": false,
          "internalType": "uint256",
          "name": "amount",
          "type": "uint256"
        },
        {
          "indexed": false,
          "internalType": "uint256",
          "name": "balance",
          "type": "uint256"
        }
      ],
      "name": "WithDraw",
      "type": "event"
    },
    {
      "inputs": [],
      "name": "feeAccount",
      "outputs": [
        {
          "internalType": "address",
          "name": "",
          "type": "address"
        }
      ],
      "stateMutability": "view",
      "type": "function"
    },
    {
      "inputs": [],
      "name": "feePercent",
      "outputs": [
        {
          "internalType": "uint256",
          "name": "",
          "type": "uint256"
        }
      ],
      "stateMutability": "view",
      "type": "function"
    },
    {
      "inputs": [],
      "name": "orderCount",
      "outputs": [
        {
          "internalType": "uint256",
          "name": "",
          "type": "uint256"
        }
      ],
      "stateMutability": "view",
      "type": "function"
    },
    {
      "inputs": [
        {
          "internalType": "uint256",
          "name": "",
          "type": "uint256"
        }
      ],
      "name": "orders",
      "outputs": [
        {
          "internalType": "uint256",
          "name": "id",
          "type": "uint256"
        },
        {
          "internalType": "address",
          "name": "user",
          "type": "address"
        },
        {
          "internalType": "address",
          "name": "tokenGet",
          "type": "address"
        },
        {
          "internalType": "uint256",
          "name": "amountGet",
          "type": "uint256"
        },
        {
          "internalType": "address",
          "name": "tokenGive",
          "type": "address"
        },
        {
          "internalType": "uint256",
          "name": "amountGive",
          "type": "uint256"
        },
        {
          "internalType": "uint256",
          "name": "timestamp",
          "type": "uint256"
        }
      ],
      "stateMutability": "view",
      "type": "function"
    },
    {
      "inputs": [
        {
          "internalType": "address",
          "name": "",
          "type": "address"
        },
        {
          "internalType": "address",
          "name": "",
          "type": "address"
        }
      ],
      "name": "tokens",
      "outputs": [
        {
          "internalType": "uint256",
          "name": "",
          "type": "uint256"
        }
      ],
      "stateMutability": "view",
      "type": "function"
    },
    {
      "inputs": [],
      "name": "depositEther",
      "outputs": [],
      "stateMutability": "payable",
      "type": "function"
    },
    {
      "inputs": [
        {
          "internalType": "address",
          "name": "_token",
          "type": "address"
        },
        {
          "internalType": "uint256",
          "name": "_amount",
          "type": "uint256"
        }
      ],
      "name": "depositToken",
      "outputs": [],
      "stateMutability": "nonpayable",
      "type": "function"
    },
    {
      "inputs": [
        {
          "internalType": "uint256",
          "name": "_amount",
          "type": "uint256"
        }
      ],
      "name": "withdrawEther",
      "outputs": [],
      "stateMutability": "nonpayable",
      "type": "function"
    },
    {
      "inputs": [
        {
          "internalType": "address",
          "name": "_token",
          "type": "address"
        },
        {
          "internalType": "uint256",
          "name": "_amount",
          "type": "uint256"
        }
      ],
      "name": "withdrawToken",
      "outputs": [],
      "stateMutability": "nonpayable",
      "type": "function"
    },
    {
      "inputs": [
        {
          "internalType": "address",
          "name": "_token",
          "type": "address"
        },
        {
          "internalType": "address",
          "name": "_user",
          "type": "address"
        }
      ],
      "name": "balanceOf",
      "outputs": [
        {
          "internalType": "uint256",
          "name": "",
          "type": "uint256"
        }
      ],
      "stateMutability": "view",
      "type": "function"
    },
    {
      "inputs": [
        {
          "internalType": "address",
          "name": "_tokenGet",
          "type": "address"
        },
        {
          "internalType": "uint256",
          "name": "_amountGet",
          "type": "uint256"
        },
        {
          "internalType": "address",
          "name": "_tokenGive",
          "type": "address"
        },
        {
          "internalType": "uint256",
          "name": "_amountGive",
          "type": "uint256"
        }
      ],
      "name": "makeOrder",
      "outputs": [],
      "stateMutability": "nonpayable",
      "type": "function"
    }
  ],
  "bytecode": "0x60806040523480156200001157600080fd5b50604051620016033803806200160383398181016040528101906200003791906200012b565b816000806101000a81548173ffffffffffffffffffffffffffffffffffffffff021916908373ffffffffffffffffffffffffffffffffffffffff16021790555080600181905550505062000172565b600080fd5b600073ffffffffffffffffffffffffffffffffffffffff82169050919050565b6000620000b8826200008b565b9050919050565b620000ca81620000ab565b8114620000d657600080fd5b50565b600081519050620000ea81620000bf565b92915050565b6000819050919050565b6200010581620000f0565b81146200011157600080fd5b50565b6000815190506200012581620000fa565b92915050565b6000806040838503121562000145576200014462000086565b5b60006200015585828601620000d9565b9250506020620001688582860162000114565b9150509250929050565b61148180620001826000396000f3fe6080604052600436106100b9576000357c0100000000000000000000000000000000000000000000000000000000900480637fd6f15c116100815780637fd6f15c146101a357806398ea5fca146101ce5780639a5c90aa146101d85780639e281a9814610201578063a85c38ef1461022a578063f7888aec1461026d576100b9565b80632453ffa8146100be578063338b5dea146100e95780633bed33ce14610112578063508493bc1461013b57806365e17c9d14610178575b600080fd5b3480156100ca57600080fd5b506100d36102aa565b6040516100e09190611053565b60405180910390f35b3480156100f557600080fd5b50610110600480360381019061010b91906110fd565b6102b0565b005b34801561011e57600080fd5b506101396004803603810190610134919061113d565b610553565b005b34801561014757600080fd5b50610162600480360381019061015d919061116a565b6107e8565b60405161016f9190611053565b60405180910390f35b34801561018457600080fd5b5061018d61080d565b60405161019a91906111b9565b60405180910390f35b3480156101af57600080fd5b506101b8610831565b6040516101c59190611053565b60405180910390f35b6101d6610837565b005b3480156101e457600080fd5b506101ff60048036038101906101fa91906111d4565b6109fb565b005b34801561020d57600080fd5b50610228600480360381019061022391906110fd565b610be7565b005b34801561023657600080fd5b50610251600480360381019061024c919061113d565b610f11565b604051610264979695949392919061123b565b60405180910390f35b34801561027957600080fd5b50610294600480360381019061028f919061116a565b610fb3565b6040516102a19190611053565b60405180910390f35b60045481565b600073ffffffffffffffffffffffffffffffffffffffff168273ffffffffffffffffffffffffffffffffffffffff16036102e957600080fd5b8173ffffffffffffffffffffffffffffffffffffffff166323b872dd3330846040518463ffffffff167c0100000000000000000000000000000000000000000000000000000000028152600401610342939291906112aa565b6020604051808303816000875af1158015610361573d6000803e3d6000fd5b505050506040513d601f19601f820116820180604052508101906103859190611319565b61038e57600080fd5b80600260008473ffffffffffffffffffffffffffffffffffffffff1673ffffffffffffffffffffffffffffffffffffffff16815260200190815260200160002060003373ffffffffffffffffffffffffffffffffffffffff1673ffffffffffffffffffffffffffffffffffffffff168152602001908152602001600020546104169190611375565b600260008473ffffffffffffffffffffffffffffffffffffffff1673ffffffffffffffffffffffffffffffffffffffff16815260200190815260200160002060003373ffffffffffffffffffffffffffffffffffffffff1673ffffffffffffffffffffffffffffffffffffffff168152602001908152602001600020819055507fdcbc1c05240f31ff3ad067ef1ee35ce4997762752e3a095284754544f4c709d7823383600260008773ffffffffffffffffffffffffffffffffffffffff1673ffffffffffffffffffffffffffffffffffffffff16815260200190815260200160002060003373ffffffffffffffffffffffffffffffffffffffff1673ffffffffffffffffffffffffffffffffffffffff1681526020019081526020016000205460405161054794939291906113a9565b60405180910390a15050565b80600260008073ffffffffffffffffffffffffffffffffffffffff1673ffffffffffffffffffffffffffffffffffffffff16815260200190815260200160002060003373ffffffffffffffffffffffffffffffffffffffff1673ffffffffffffffffffffffffffffffffffffffff1681526020019081526020016000205410156105dc57600080fd5b80600260008073ffffffffffffffffffffffffffffffffffffffff1673ffffffffffffffffffffffffffffffffffffffff16815260200190815260200160002060003373ffffffffffffffffffffffffffffffffffffffff1673ffffffffffffffffffffffffffffffffffffffff1681526020019081526020016000205461066491906113ee565b600260008073ffffffffffffffffffffffffffffffffffffffff1673ffffffffffffffffffffffffffffffffffffffff16815260200190815260200160002060003373ffffffffffffffffffffffffffffffffffffffff1673ffffffffffffffffffffffffffffffffffffffff168152602001908152602001600020819055503373ffffffffffffffffffffffffffffffffffffffff166108fc829081150290604051600060405180830381858888f1935050505015801561072a573d6000803e3d6000fd5b507f2ffdfede8e3142dc22c86f615731d1d79115cf0652b6880e40eb6ef76ed86da260003383600260008073ffffffffffffffffffffffffffffffffffffffff1673ffffffffffffffffffffffffffffffffffffffff16815260200190815260200160002060003373ffffffffffffffffffffffffffffffffffffffff1673ffffffffffffffffffffffffffffffffffffffff168152602001908152602001600020546040516107dd94939291906113a9565b60405180910390a150565b6002602052816000526040600020602052806000526040600020600091509150505481565b60008054906101000a900473ffffffffffffffffffffffffffffffffffffffff1681565b60015481565b34600260008073ffffffffffffffffffffffffffffffffffffffff1673ffffffffffffffffffffffffffffffffffffffff16815260200190815260200160002060003373ffffffffffffffffffffffffffffffffffffffff1673ffffffffffffffffffffffffffffffffffffffff168152602001908152602001600020546108bf9190611375565b600260008073ffffffffffffffffffffffffffffffffffffffff1673ffffffffffffffffffffffffffffffffffffffff16815260200190815260200160002060003373ffffffffffffffffffffffffffffffffffffffff1673ffffffffffffffffffffffffffffffffffffffff168152602001908152602001600020819055507fdcbc1c05240f31ff3ad067ef1ee35ce4997762752e3a095284754544f4c709d760003334600260008073ffffffffffffffffffffffffffffffffffffffff1673ffffffffffffffffffffffffffffffffffffffff16815260200190815260200160002060003373ffffffffffffffffffffffffffffffffffffffff1673ffffffffffffffffffffffffffffffffffffffff168152602001908152602001600020546040516109f194939291906113a9565b60405180910390a1565b6001600454610a0a9190611375565b6004819055506040518060e0016040528060045481526020013373ffffffffffffffffffffffffffffffffffffffff1681526020018573ffffffffffffffffffffffffffffffffffffffff1681526020018481526020018373ffffffffffffffffffffffffffffffffffffffff168152602001828152602001428152506003600060045481526020019081526020016000206000820151816000015560208201518160010160006101000a81548173ffffffffffffffffffffffffffffffffffffffff021916908373ffffffffffffffffffffffffffffffffffffffff16021790555060408201518160020160006101000a81548173ffffffffffffffffffffffffffffffffffffffff021916908373ffffffffffffffffffffffffffffffffffffffff1602179055506060820151816003015560808201518160040160006101000a81548173ffffffffffffffffffffffffffffffffffffffff021916908373ffffffffffffffffffffffffffffffffffffffff16021790555060a0820151816005015560c082015181600601559050507f9d33853d43e3607b4cc01fdc78338ff2dca6fef7db9232dae6d3eb55fbc3b109600454338686868642604051610bd9979695949392919061123b565b60405180910390a150505050565b600073ffffffffffffffffffffffffffffffffffffffff168273ffffffffffffffffffffffffffffffffffffffff1603610c2057600080fd5b80600260008473ffffffffffffffffffffffffffffffffffffffff1673ffffffffffffffffffffffffffffffffffffffff16815260200190815260200160002060003373ffffffffffffffffffffffffffffffffffffffff1673ffffffffffffffffffffffffffffffffffffffff168152602001908152602001600020541015610ca957600080fd5b80600260008473ffffffffffffffffffffffffffffffffffffffff1673ffffffffffffffffffffffffffffffffffffffff16815260200190815260200160002060003373ffffffffffffffffffffffffffffffffffffffff1673ffffffffffffffffffffffffffffffffffffffff16815260200190815260200160002054610d3191906113ee565b600260008473ffffffffffffffffffffffffffffffffffffffff1673ffffffffffffffffffffffffffffffffffffffff16815260200190815260200160002060003373ffffffffffffffffffffffffffffffffffffffff1673ffffffffffffffffffffffffffffffffffffffff168152602001908152602001600020819055508173ffffffffffffffffffffffffffffffffffffffff1663a9059cbb33836040518363ffffffff167c0100000000000000000000000000000000000000000000000000000000028152600401610e08929190611422565b6020604051808303816000875af1158015610e27573d6000803e3d6000fd5b505050506040513d601f19601f82011682018060405250810190610e4b9190611319565b610e5457600080fd5b7f2ffdfede8e3142dc22c86f615731d1d79115cf0652b6880e40eb6ef76ed86da2823383600260008773ffffffffffffffffffffffffffffffffffffffff1673ffffffffffffffffffffffffffffffffffffffff16815260200190815260200160002060003373ffffffffffffffffffffffffffffffffffffffff1673ffffffffffffffffffffffffffffffffffffffff16815260200190815260200160002054604051610f0594939291906113a9565b60405180910390a15050565b60036020528060005260406000206000915090508060000154908060010160009054906101000a900473ffffffffffffffffffffffffffffffffffffffff16908060020160009054906101000a900473ffffffffffffffffffffffffffffffffffffffff16908060030154908060040160009054906101000a900473ffffffffffffffffffffffffffffffffffffffff16908060050154908060060154905087565b6000600260008473ffffffffffffffffffffffffffffffffffffffff1673ffffffffffffffffffffffffffffffffffffffff16815260200190815260200160002060008373ffffffffffffffffffffffffffffffffffffffff1673ffffffffffffffffffffffffffffffffffffffff16815260200190815260200160002054905092915050565b6000819050919050565b61104d8161103a565b82525050565b60006020820190506110686000830184611044565b92915050565b600080fd5b600073ffffffffffffffffffffffffffffffffffffffff82169050919050565b600061109e82611073565b9050919050565b6110ae81611093565b81146110b957600080fd5b50565b6000813590506110cb816110a5565b92915050565b6110da8161103a565b81146110e557600080fd5b50565b6000813590506110f7816110d1565b92915050565b600080604083850312156111145761111361106e565b5b6000611122858286016110bc565b9250506020611133858286016110e8565b9150509250929050565b6000602082840312156111535761115261106e565b5b6000611161848285016110e8565b91505092915050565b600080604083850312156111815761118061106e565b5b600061118f858286016110bc565b92505060206111a0858286016110bc565b9150509250929050565b6111b381611093565b82525050565b60006020820190506111ce60008301846111aa565b92915050565b600080600080608085870312156111ee576111ed61106e565b5b60006111fc878288016110bc565b945050602061120d878288016110e8565b935050604061121e878288016110bc565b925050606061122f878288016110e8565b91505092959194509250565b600060e082019050611250600083018a611044565b61125d60208301896111aa565b61126a60408301886111aa565b6112776060830187611044565b61128460808301866111aa565b61129160a0830185611044565b61129e60c0830184611044565b98975050505050505050565b60006060820190506112bf60008301866111aa565b6112cc60208301856111aa565b6112d96040830184611044565b949350505050565b60008115159050919050565b6112f6816112e1565b811461130157600080fd5b50565b600081519050611313816112ed565b92915050565b60006020828403121561132f5761132e61106e565b5b600061133d84828501611304565b91505092915050565b7f4e487b7100000000000000000000000000000000000000000000000000000000600052601160045260246000fd5b60006113808261103a565b915061138b8361103a565b92508282019050808211156113a3576113a2611346565b5b92915050565b60006080820190506113be60008301876111aa565b6113cb60208301866111aa565b6113d86040830185611044565b6113e56060830184611044565b95945050505050565b60006113f98261103a565b91506114048361103a565b925082820390508181111561141c5761141b611346565b5b92915050565b600060408201905061143760008301856111aa565b6114446020830184611044565b939250505056fea264697066735822122008201bde035150a73b7ed4c6fa10b6bdcb38b30716ecb2f8512bd4045e78eb0b64736f6c63430008150033",
  "immutableReferences": {},
  "source": "pragma solidity >=0.4.16 <0.9.0;\r\n\r\nimport \"./HflToken.sol\";\r\n\r\ncontract Exchange {\r\n    // \r\n    address public feeAccount;\r\n    // \r\n    uint256 public feePercent;\r\n\r\n    // \r\n    address constant ETHER = address(0);\r\n\r\n    // \r\n    mapping(address => mapping(address => uint256)) public tokens;\r\n\r\n    // \r\n    struct _Order {\r\n        uint256 id;\r\n        address user;\r\n        address tokenGet;\r\n        uint256 amountGet;\r\n\r\n        address tokenGive;\r\n        uint256 amountGive;\r\n\r\n        uint256 timestamp;\r\n    }\r\n\r\n    // _Order[] public orderlist;\r\n\r\n    mapping(uint256 => _Order) public orders;\r\n    uint256 public orderCount;\r\n\r\n    // \r\n    constructor(address _feeAccount, uint256 _feePercent) {\r\n        feeAccount = _feeAccount;\r\n        feePercent = _feePercent;\r\n    }\r\n\r\n    // \r\n    function depositEther() public payable {\r\n        // msg.sender\r\n        // msg.value\r\n        tokens[ETHER][msg.sender] = tokens[ETHER][msg.sender] + msg.value;\r\n        emit Deposit(ETHER, msg.sender, msg.value, tokens[ETHER][msg.sender]);\r\n    }\r\n\r\n    event Deposit(address token, address user, uint256 amount, uint256 balance);\r\n\r\n    event WithDraw(\r\n        address token,\r\n        address user,\r\n        uint256 amount,\r\n        uint256 balance\r\n    );\r\n\r\n    event Order(\r\n        uint256 id,\r\n        address user,\r\n        address tokenGet,\r\n        uint256 amountGet,\r\n        address tokenGive,\r\n        uint256 amountGive,\r\n        uint256 timestamp\r\n    );\r\n\r\n\r\n    // \r\n    function depositToken(address _token, uint256 _amount) public {\r\n        require(_token != ETHER);\r\n        // \r\n        require(\r\n            HflToken(_token).transferFrom(msg.sender, address(this), _amount)\r\n        );\r\n        tokens[_token][msg.sender] = tokens[_token][msg.sender] + _amount;\r\n        emit Deposit(_token, msg.sender, _amount, tokens[_token][msg.sender]);\r\n    }\r\n\r\n    // \r\n    function withdrawEther(uint256 _amount) public {\r\n        require(tokens[ETHER][msg.sender] >= _amount);\r\n        tokens[ETHER][msg.sender] = tokens[ETHER][msg.sender] - _amount;\r\n        // \r\n        payable(msg.sender).transfer(_amount);\r\n\r\n        emit WithDraw(ETHER, msg.sender, _amount, tokens[ETHER][msg.sender]);\r\n    }\r\n\r\n    // \r\n    function withdrawToken(address _token, uint256 _amount) public {\r\n        require(_token != ETHER);\r\n        require(tokens[_token][msg.sender] >= _amount);\r\n\r\n        tokens[_token][msg.sender] = tokens[_token][msg.sender] - _amount;\r\n        // \r\n        require(HflToken(_token).transfer(msg.sender, _amount));\r\n        emit WithDraw(_token, msg.sender, _amount, tokens[_token][msg.sender]);\r\n    }\r\n\r\n    // \r\n    function balanceOf(\r\n        address _token,\r\n        address _user\r\n    ) public view returns (uint256) {\r\n        return tokens[_token][_user];\r\n    }\r\n\r\n    // makeOrder\r\n    function makeOrder(address _tokenGet,\r\n        uint256 _amountGet,\r\n        address _tokenGive,\r\n        uint256 _amountGive) public {\r\n        orderCount = orderCount + 1;\r\n        orders[orderCount] = _Order(orderCount, msg.sender, _tokenGet, _amountGet, _tokenGive, _amountGive, block.timestamp);\r\n\r\n        // \r\n        emit Order(orderCount, msg.sender, _tokenGet, _amountGet, _tokenGive, _amountGive, block.timestamp);\r\n    }\r\n\r\n    // cancelOrder\r\n\r\n    // fillOrder\r\n}\r\n",
  "sourcePath": "D:\\project\\idea_work\\own\\ganache-demo\\code\\contracts\\Exchange.sol",
  "compiler": {
    "name": "solc",
    "version": "0.8.21+commit.d9974bed.Emscripten.clang"
  },
  "schemaVersion": "3.4.16",
  "updatedAt": "2025-09-08T01:47:58.278Z",
  "devdoc": {
    "kind": "dev",
    "methods": {},
    "version": 1
  },
  "userdoc": {
    "kind": "user",
    "methods": {},
    "version": 1
  }
}