{
  "contractName": "HflToken",
  "abi": [
    {
      "inputs": [],
      "stateMutability": "nonpayable",
      "type": "constructor"
    },
    {
      "anonymous": false,
      "inputs": [
        {
          "indexed": true,
          "internalType": "address",
          "name": "_owner",
          "type": "address"
        },
        {
          "indexed": true,
          "internalType": "address",
          "name": "_spender",
          "type": "address"
        },
        {
          "indexed": false,
          "internalType": "uint256",
          "name": "_value",
          "type": "uint256"
        }
      ],
      "name": "Approval",
      "type": "event"
    },
    {
      "anonymous": false,
      "inputs": [
        {
          "indexed": true,
          "internalType": "address",
          "name": "_from",
          "type": "address"
        },
        {
          "indexed": true,
          "internalType": "address",
          "name": "_to",
          "type": "address"
        },
        {
          "indexed": false,
          "internalType": "uint256",
          "name": "_value",
          "type": "uint256"
        }
      ],
      "name": "Transfer",
      "type": "event"
    },
    {
      "inputs": [
        {
          "internalType": "address",
          "name": "",
          "type": "address"
        },
        {
          "internalType": "address",
          "name": "",
          "type": "address"
        }
      ],
      "name": "allowance",
      "outputs": [
        {
          "internalType": "uint256",
          "name": "",
          "type": "uint256"
        }
      ],
      "stateMutability": "view",
      "type": "function",
      "constant": true
    },
    {
      "inputs": [
        {
          "internalType": "address",
          "name": "",
          "type": "address"
        }
      ],
      "name": "balanceOf",
      "outputs": [
        {
          "internalType": "uint256",
          "name": "",
          "type": "uint256"
        }
      ],
      "stateMutability": "view",
      "type": "function",
      "constant": true
    },
    {
      "inputs": [],
      "name": "decimals",
      "outputs": [
        {
          "internalType": "uint256",
          "name": "",
          "type": "uint256"
        }
      ],
      "stateMutability": "view",
      "type": "function",
      "constant": true
    },
    {
      "inputs": [],
      "name": "name",
      "outputs": [
        {
          "internalType": "string",
          "name": "",
          "type": "string"
        }
      ],
      "stateMutability": "view",
      "type": "function",
      "constant": true
    },
    {
      "inputs": [],
      "name": "symbol",
      "outputs": [
        {
          "internalType": "string",
          "name": "",
          "type": "string"
        }
      ],
      "stateMutability": "view",
      "type": "function",
      "constant": true
    },
    {
      "inputs": [],
      "name": "totalSupply",
      "outputs": [
        {
          "internalType": "uint256",
          "name": "",
          "type": "uint256"
        }
      ],
      "stateMutability": "view",
      "type": "function",
      "constant": true
    },
    {
      "inputs": [
        {
          "internalType": "address",
          "name": "_to",
          "type": "address"
        },
        {
          "internalType": "uint256",
          "name": "_value",
          "type": "uint256"
        }
      ],
      "name": "transfer",
      "outputs": [
        {
          "internalType": "bool",
          "name": "success",
          "type": "bool"
        }
      ],
      "stateMutability": "nonpayable",
      "type": "function"
    },
    {
      "inputs": [
        {
          "internalType": "address",
          "name": "_spender",
          "type": "address"
        },
        {
          "internalType": "uint256",
          "name": "_value",
          "type": "uint256"
        }
      ],
      "name": "approve",
      "outputs": [
        {
          "internalType": "bool",
          "name": "success",
          "type": "bool"
        }
      ],
      "stateMutability": "nonpayable",
      "type": "function"
    }
  ],
  "bytecode": "0x60806040526040518060400160405280600881526020017f48464c546f6b656e000000000000000000000000000000000000000000000000815250600090816200004a919062000398565b506040518060400160405280600381526020017f48464c00000000000000000000000000000000000000000000000000000000008152506001908162000091919062000398565b506012600255348015620000a457600080fd5b50600254600a620000b6919062000602565b620f4240620000c6919062000653565b600381905550600354600460003373ffffffffffffffffffffffffffffffffffffffff1673ffffffffffffffffffffffffffffffffffffffff168152602001908152602001600020819055506200069e565b600081519050919050565b7f4e487b7100000000000000000000000000000000000000000000000000000000600052604160045260246000fd5b7f4e487b7100000000000000000000000000000000000000000000000000000000600052602260045260246000fd5b600060028204905060018216806200019a57607f821691505b602082108103620001b057620001af62000152565b5b50919050565b60008190508160005260206000209050919050565b60006020601f8301049050919050565b60008160020a8302905092915050565b6000600883026200021d7fffffffffffffffffffffffffffffffffffffffffffffffffffffffffffffffff82620001db565b620002298683620001db565b95508019841693508086168417925050509392505050565b6000819050919050565b6000819050919050565b600062000276620002706200026a8462000241565b6200024b565b62000241565b9050919050565b6000819050919050565b620002928362000255565b620002aa620002a1826200027d565b848454620001eb565b825550505050565b600090565b620002c1620002b2565b620002ce81848462000287565b505050565b5b81811015620002f657620002ea600082620002b7565b600181019050620002d4565b5050565b601f82111562000345576200030f81620001b6565b6200031a84620001cb565b810160208510156200032a578190505b620003426200033985620001cb565b830182620002d3565b50505b505050565b60008160020a8304905092915050565b60006200036d600019846008026200034a565b1980831691505092915050565b60006200038883836200035a565b9150826002028217905092915050565b620003a38262000118565b67ffffffffffffffff811115620003bf57620003be62000123565b5b620003cb825462000181565b620003d8828285620002fa565b600060209050601f831160018114620004105760008415620003fb578287015190505b6200040785826200037a565b86555062000477565b601f1984166200042086620001b6565b60005b828110156200044a5784890151825560018201915060208501945060208101905062000423565b868310156200046a578489015162000466601f8916826200035a565b8355505b6001600288020188555050505b505050505050565b7f4e487b7100000000000000000000000000000000000000000000000000000000600052601160045260246000fd5b6000600282049050919050565b6000808291508390505b60018511156200050d57808604811115620004e557620004e46200047f565b5b6001851615620004f55780820291505b80810290506200050585620004ae565b9450620004c5565b94509492505050565b600082620005285760019050620005fb565b81620005385760009050620005fb565b81600181146200055157600281146200055c5762000592565b6001915050620005fb565b60ff8411156200057157620005706200047f565b5b8360020a9150848211156200058b576200058a6200047f565b5b50620005fb565b5060208310610133831016604e8410600b8410161715620005cc5782820a905083811115620005c657620005c56200047f565b5b620005fb565b620005db8484846001620004bb565b92509050818404811115620005f557620005f46200047f565b5b81810290505b9392505050565b60006200060f8262000241565b91506200061c8362000241565b92506200064b7fffffffffffffffffffffffffffffffffffffffffffffffffffffffffffffffff848462000516565b905092915050565b6000620006608262000241565b91506200066d8362000241565b92508282026200067d8162000241565b915082820484148315176200069757620006966200047f565b5b5092915050565b610a5080620006ae6000396000f3fe608060405234801561001057600080fd5b50600436106100a5576000357c01000000000000000000000000000000000000000000000000000000009004806370a082311161007857806370a082311461013457806395d89b4114610164578063a9059cbb14610182578063dd62ed3e146101b2576100a5565b806306fdde03146100aa578063095ea7b3146100c857806318160ddd146100f8578063313ce56714610116575b600080fd5b6100b26101e2565b6040516100bf919061075b565b60405180910390f35b6100e260048036038101906100dd9190610816565b610270565b6040516100ef9190610871565b60405180910390f35b61010061039a565b60405161010d919061089b565b60405180910390f35b61011e6103a0565b60405161012b919061089b565b60405180910390f35b61014e600480360381019061014991906108b6565b6103a6565b60405161015b919061089b565b60405180910390f35b61016c6103be565b604051610179919061075b565b60405180910390f35b61019c60048036038101906101979190610816565b61044c565b6040516101a99190610871565b60405180910390f35b6101cc60048036038101906101c791906108e3565b61049b565b6040516101d9919061089b565b60405180910390f35b600080546101ef90610952565b80601f016020809104026020016040519081016040528092919081815260200182805461021b90610952565b80156102685780601f1061023d57610100808354040283529160200191610268565b820191906000526020600020905b81548152906001019060200180831161024b57829003601f168201915b505050505081565b60008073ffffffffffffffffffffffffffffffffffffffff168373ffffffffffffffffffffffffffffffffffffffff16036102aa57600080fd5b81600560003373ffffffffffffffffffffffffffffffffffffffff1673ffffffffffffffffffffffffffffffffffffffff16815260200190815260200160002060008573ffffffffffffffffffffffffffffffffffffffff1673ffffffffffffffffffffffffffffffffffffffff168152602001908152602001600020819055508273ffffffffffffffffffffffffffffffffffffffff163373ffffffffffffffffffffffffffffffffffffffff167f8c5be1e5ebec7d5bd14f71427d1e84f3dd0314c0f7b2291e5b200ac8c7c3b92584604051610388919061089b565b60405180910390a36001905092915050565b60035481565b60025481565b60046020528060005260406000206000915090505481565b600180546103cb90610952565b80601f01602080910402602001604051908101604052809291908181526020018280546103f790610952565b80156104445780601f1061041957610100808354040283529160200191610444565b820191906000526020600020905b81548152906001019060200180831161042757829003601f168201915b505050505081565b60008073ffffffffffffffffffffffffffffffffffffffff168373ffffffffffffffffffffffffffffffffffffffff160361048657600080fd5b6104913384846104c0565b6001905092915050565b6005602052816000526040600020602052806000526040600020600091509150505481565b600073ffffffffffffffffffffffffffffffffffffffff168273ffffffffffffffffffffffffffffffffffffffff16036104f957600080fd5b80600460008573ffffffffffffffffffffffffffffffffffffffff1673ffffffffffffffffffffffffffffffffffffffff16815260200190815260200160002054101561054557600080fd5b80600460008573ffffffffffffffffffffffffffffffffffffffff1673ffffffffffffffffffffffffffffffffffffffff1681526020019081526020016000205461059091906109b2565b600460008573ffffffffffffffffffffffffffffffffffffffff1673ffffffffffffffffffffffffffffffffffffffff1681526020019081526020016000208190555080600460008473ffffffffffffffffffffffffffffffffffffffff1673ffffffffffffffffffffffffffffffffffffffff1681526020019081526020016000205461061e91906109e6565b600460008473ffffffffffffffffffffffffffffffffffffffff1673ffffffffffffffffffffffffffffffffffffffff168152602001908152602001600020819055508173ffffffffffffffffffffffffffffffffffffffff168373ffffffffffffffffffffffffffffffffffffffff167fddf252ad1be2c89b69c2b068fc378daa952ba7f163c4a11628f55a4df523b3ef836040516106be919061089b565b60405180910390a3505050565b600081519050919050565b600082825260208201905092915050565b60005b838110156107055780820151818401526020810190506106ea565b60008484015250505050565b6000601f19601f8301169050919050565b600061072d826106cb565b61073781856106d6565b93506107478185602086016106e7565b61075081610711565b840191505092915050565b600060208201905081810360008301526107758184610722565b905092915050565b600080fd5b600073ffffffffffffffffffffffffffffffffffffffff82169050919050565b60006107ad82610782565b9050919050565b6107bd816107a2565b81146107c857600080fd5b50565b6000813590506107da816107b4565b92915050565b6000819050919050565b6107f3816107e0565b81146107fe57600080fd5b50565b600081359050610810816107ea565b92915050565b6000806040838503121561082d5761082c61077d565b5b600061083b858286016107cb565b925050602061084c85828601610801565b9150509250929050565b60008115159050919050565b61086b81610856565b82525050565b60006020820190506108866000830184610862565b92915050565b610895816107e0565b82525050565b60006020820190506108b0600083018461088c565b92915050565b6000602082840312156108cc576108cb61077d565b5b60006108da848285016107cb565b91505092915050565b600080604083850312156108fa576108f961077d565b5b6000610908858286016107cb565b9250506020610919858286016107cb565b9150509250929050565b7f4e487b7100000000000000000000000000000000000000000000000000000000600052602260045260246000fd5b6000600282049050600182168061096a57607f821691505b60208210810361097d5761097c610923565b5b50919050565b7f4e487b7100000000000000000000000000000000000000000000000000000000600052601160045260246000fd5b60006109bd826107e0565b91506109c8836107e0565b92508282039050818111156109e0576109df610983565b5b92915050565b60006109f1826107e0565b91506109fc836107e0565b9250828201905080821115610a1457610a13610983565b5b9291505056fea2646970667358221220aceafd78702346f022be7f4982a43b0d0a8a0ad21785edbfbc9d40f94511e8af64736f6c63430008150033",
  "immutableReferences": {},
  "source": "pragma solidity >= 0.4.16 < 0.9.0;\r\n\r\n\r\ncontract HflToken {\r\n\r\n\r\n    string public name = \"HFLToken\";\r\n\r\n    string public symbol = \"HFL\";\r\n\r\n    uint256 public decimals = 18;\r\n \r\n    uint256 public totalSupply;\r\n\r\n    // mapping(address => uint256) public balanceOf;\r\n    mapping(address => uint256) public balanceOf;\r\n\r\n    mapping(address => mapping(address => uint256)) public allowance; //\r\n\r\n    constructor() {\r\n        // totalSupply = _initialSupply * 10 ** decimals;\r\n        totalSupply = 1000000 * (10 ** decimals);\r\n        // \r\n        balanceOf[msg.sender] = totalSupply;\r\n    }\r\n \r\n    //   \r\n    event Transfer(address indexed _from, address indexed _to, uint256 _value);\r\n\r\n    event Approval(address indexed _owner, address indexed _spender, uint256 _value);\r\n\r\n    function transfer(address _to,  uint256 _value) public returns (bool success) {\r\n        require(_to!=address(0));\r\n        // require(balanceOf[msg.sender] >= _value);\r\n        // balanceOf[msg.sender] = balanceOf[msg.sender].sub(_value);  // \r\n        // balanceOf[_to] = balanceOf[msg.sender].add(_value); //    \r\n        _transfer(msg.sender, _to, _value);\r\n        return true;\r\n    }\r\n\r\n    function _transfer(address _from, address _to,  uint256 _value) internal {\r\n        require(_to!=address(0));\r\n        require(balanceOf[_from] >= _value);\r\n        // \r\n        balanceOf[_from] = balanceOf[_from] - _value;  // \r\n        balanceOf[_to] = balanceOf[_to] + _value; //    \r\n\r\n        // \r\n        emit Transfer(_from, _to, _value);\r\n    }   \r\n\r\n\r\n    function approve(address _spender, uint256 _value) public returns (bool success) {\r\n        // msg.sender \r\n        // _spender  \r\n        // _value \r\n        require(_spender != address(0));\r\n        allowance[msg.sender][_spender] = _value;\r\n        emit Approval(msg.sender, _spender, _value);\r\n        // // return true;\r\n        // _approve(msg.sender, _spender, _value);\r\n        return true;\r\n    }\r\n\r\n    function _approve(address _owner, address _spender, uint256 _value) internal {\r\n        allowance[_owner][_spender] = _value;\r\n    }\r\n\r\n\r\n   // \r\n//     function transferFrom(address _from, address _to, uint256 _value) public returns (bool success) {\r\n//        // _from \r\n//        // _to \r\n//        // msg.sender \r\n       \r\n//         require(balanceOf[_from]  >= _value);\r\n//         require(allowance[_from][msg.sender]>=_value);\r\n// X        // balanceOf[_to] = balanceOf[_to].add(_value);\r\n//         // _transfer(_from, _to, _value);\r\n//         // _approve(_from, msg.sender, allowance[_from][msg.sender] - _value);\r\n//         return true;\r\n//     }\r\n\r\n\r\n\r\n\r\n\r\n\r\n\r\n}",
  "sourcePath": "D:\\project\\idea_work\\own\\ganache-demo\\code\\contracts\\HflToken.sol",
  "compiler": {
    "name": "solc",
    "version": "0.8.21+commit.d9974bed.Emscripten.clang"
  },
  "schemaVersion": "3.4.16",
  "updatedAt": "2025-09-06T05:53:26.527Z",
  "networkType": "ethereum",
  "devdoc": {
    "kind": "dev",
    "methods": {},
    "version": 1
  },
  "userdoc": {
    "kind": "user",
    "methods": {},
    "version": 1
  }
}