{
  "contractName": "StudentListStorage",
  "abi": [
    {
      "inputs": [
        {
          "internalType": "uint256",
          "name": "",
          "type": "uint256"
        }
      ],
      "name": "StudentList",
      "outputs": [
        {
          "internalType": "uint256",
          "name": "id",
          "type": "uint256"
        },
        {
          "internalType": "string",
          "name": "name",
          "type": "string"
        },
        {
          "internalType": "uint256",
          "name": "age",
          "type": "uint256"
        },
        {
          "internalType": "address",
          "name": "account",
          "type": "address"
        }
      ],
      "stateMutability": "view",
      "type": "function",
      "constant": true
    },
    {
      "inputs": [],
      "name": "age",
      "outputs": [
        {
          "internalType": "uint256",
          "name": "",
          "type": "uint256"
        }
      ],
      "stateMutability": "view",
      "type": "function",
      "constant": true
    },
    {
      "inputs": [],
      "name": "name",
      "outputs": [
        {
          "internalType": "string",
          "name": "",
          "type": "string"
        }
      ],
      "stateMutability": "view",
      "type": "function",
      "constant": true
    },
    {
      "inputs": [
        {
          "internalType": "string",
          "name": "_name",
          "type": "string"
        },
        {
          "internalType": "uint256",
          "name": "_age",
          "type": "uint256"
        }
      ],
      "name": "addList",
      "outputs": [
        {
          "internalType": "uint256",
          "name": "",
          "type": "uint256"
        }
      ],
      "stateMutability": "nonpayable",
      "type": "function"
    },
    {
      "inputs": [],
      "name": "getList",
      "outputs": [
        {
          "components": [
            {
              "internalType": "uint256",
              "name": "id",
              "type": "uint256"
            },
            {
              "internalType": "string",
              "name": "name",
              "type": "string"
            },
            {
              "internalType": "uint256",
              "name": "age",
              "type": "uint256"
            },
            {
              "internalType": "address",
              "name": "account",
              "type": "address"
            }
          ],
          "internalType": "struct StudentListStorage.Student[]",
          "name": "",
          "type": "tuple[]"
        }
      ],
      "stateMutability": "view",
      "type": "function",
      "constant": true
    }
  ],
  "bytecode": "0x608060405234801561001057600080fd5b50610db0806100206000396000f3fe608060405234801561001057600080fd5b5060043610610074576000357c01000000000000000000000000000000000000000000000000000000009004806306fdde0314610079578063262a9dff146100975780636b29d35f146100b5578063942b765a146100e557806395bbc64e14610103575b600080fd5b610081610136565b60405161008e91906105a3565b60405180910390f35b61009f6101c4565b6040516100ac91906105de565b60405180910390f35b6100cf60048036038101906100ca919061076e565b6101ca565b6040516100dc91906105de565b60405180910390f35b6100ed6102cb565b6040516100fa9190610989565b60405180910390f35b61011d600480360381019061011891906109ab565b61042b565b60405161012d94939291906109e7565b60405180910390f35b6001805461014390610a62565b80601f016020809104026020016040519081016040528092919081815260200182805461016f90610a62565b80156101bc5780601f10610191576101008083540402835291602001916101bc565b820191906000526020600020905b81548152906001019060200180831161019f57829003601f168201915b505050505081565b60025481565b600080600080549050905060006001826101e49190610ac2565b9050600060405180608001604052808381526020018781526020018681526020013373ffffffffffffffffffffffffffffffffffffffff1681525090806001815401808255809150506001900390600052602060002090600402016000909190919091506000820151816000015560208201518160010190816102679190610ca8565b506040820151816002015560608201518160030160006101000a81548173ffffffffffffffffffffffffffffffffffffffff021916908373ffffffffffffffffffffffffffffffffffffffff16021790555050506000805490509250505092915050565b6060600080805480602002602001604051908101604052809291908181526020016000905b8282101561041e57838290600052602060002090600402016040518060800160405290816000820154815260200160018201805461032d90610a62565b80601f016020809104026020016040519081016040528092919081815260200182805461035990610a62565b80156103a65780601f1061037b576101008083540402835291602001916103a6565b820191906000526020600020905b81548152906001019060200180831161038957829003601f168201915b50505050508152602001600282015481526020016003820160009054906101000a900473ffffffffffffffffffffffffffffffffffffffff1673ffffffffffffffffffffffffffffffffffffffff1673ffffffffffffffffffffffffffffffffffffffff1681525050815260200190600101906102f0565b5050505090508091505090565b6000818154811061043b57600080fd5b906000526020600020906004020160009150905080600001549080600101805461046490610a62565b80601f016020809104026020016040519081016040528092919081815260200182805461049090610a62565b80156104dd5780601f106104b2576101008083540402835291602001916104dd565b820191906000526020600020905b8154815290600101906020018083116104c057829003601f168201915b5050505050908060020154908060030160009054906101000a900473ffffffffffffffffffffffffffffffffffffffff16905084565b600081519050919050565b600082825260208201905092915050565b60005b8381101561054d578082015181840152602081019050610532565b60008484015250505050565b6000601f19601f8301169050919050565b600061057582610513565b61057f818561051e565b935061058f81856020860161052f565b61059881610559565b840191505092915050565b600060208201905081810360008301526105bd818461056a565b905092915050565b6000819050919050565b6105d8816105c5565b82525050565b60006020820190506105f360008301846105cf565b92915050565b6000604051905090565b600080fd5b600080fd5b600080fd5b600080fd5b7f4e487b7100000000000000000000000000000000000000000000000000000000600052604160045260246000fd5b61064f82610559565b810181811067ffffffffffffffff8211171561066e5761066d610617565b5b80604052505050565b60006106816105f9565b905061068d8282610646565b919050565b600067ffffffffffffffff8211156106ad576106ac610617565b5b6106b682610559565b9050602081019050919050565b82818337600083830152505050565b60006106e56106e084610692565b610677565b90508281526020810184848401111561070157610700610612565b5b61070c8482856106c3565b509392505050565b600082601f8301126107295761072861060d565b5b81356107398482602086016106d2565b91505092915050565b61074b816105c5565b811461075657600080fd5b50565b60008135905061076881610742565b92915050565b6000806040838503121561078557610784610603565b5b600083013567ffffffffffffffff8111156107a3576107a2610608565b5b6107af85828601610714565b92505060206107c085828601610759565b9150509250929050565b600081519050919050565b600082825260208201905092915050565b6000819050602082019050919050565b6107ff816105c5565b82525050565b600082825260208201905092915050565b600061082182610513565b61082b8185610805565b935061083b81856020860161052f565b61084481610559565b840191505092915050565b600073ffffffffffffffffffffffffffffffffffffffff82169050919050565b600061087a8261084f565b9050919050565b61088a8161086f565b82525050565b60006080830160008301516108a860008601826107f6565b50602083015184820360208601526108c08282610816565b91505060408301516108d560408601826107f6565b5060608301516108e86060860182610881565b508091505092915050565b60006108ff8383610890565b905092915050565b6000602082019050919050565b600061091f826107ca565b61092981856107d5565b93508360208202850161093b856107e6565b8060005b85811015610977578484038952815161095885826108f3565b945061096383610907565b925060208a0199505060018101905061093f565b50829750879550505050505092915050565b600060208201905081810360008301526109a38184610914565b905092915050565b6000602082840312156109c1576109c0610603565b5b60006109cf84828501610759565b91505092915050565b6109e18161086f565b82525050565b60006080820190506109fc60008301876105cf565b8181036020830152610a0e818661056a565b9050610a1d60408301856105cf565b610a2a60608301846109d8565b95945050505050565b7f4e487b7100000000000000000000000000000000000000000000000000000000600052602260045260246000fd5b60006002820490506001821680610a7a57607f821691505b602082108103610a8d57610a8c610a33565b5b50919050565b7f4e487b7100000000000000000000000000000000000000000000000000000000600052601160045260246000fd5b6000610acd826105c5565b9150610ad8836105c5565b9250828201905080821115610af057610aef610a93565b5b92915050565b60008190508160005260206000209050919050565b60006020601f8301049050919050565b60008160020a8302905092915050565b600060088302610b5b7fffffffffffffffffffffffffffffffffffffffffffffffffffffffffffffffff82610b1b565b610b658683610b1b565b95508019841693508086168417925050509392505050565b6000819050919050565b6000610ba2610b9d610b98846105c5565b610b7d565b6105c5565b9050919050565b6000819050919050565b610bbc83610b87565b610bd0610bc882610ba9565b848454610b2b565b825550505050565b600090565b610be5610bd8565b610bf0818484610bb3565b505050565b5b81811015610c1457610c09600082610bdd565b600181019050610bf6565b5050565b601f821115610c5957610c2a81610af6565b610c3384610b0b565b81016020851015610c42578190505b610c56610c4e85610b0b565b830182610bf5565b50505b505050565b60008160020a8304905092915050565b6000610c7f60001984600802610c5e565b1980831691505092915050565b6000610c988383610c6e565b9150826002028217905092915050565b610cb182610513565b67ffffffffffffffff811115610cca57610cc9610617565b5b610cd48254610a62565b610cdf828285610c18565b600060209050601f831160018114610d125760008415610d00578287015190505b610d0a8582610c8c565b865550610d72565b601f198416610d2086610af6565b60005b82811015610d4857848901518255600182019150602085019450602081019050610d23565b86831015610d655784890151610d61601f891682610c6e565b8355505b6001600288020188555050505b50505050505056fea2646970667358221220e55ed9247f8117b0ca2ac55b85cde04920fdb11846e4d054300de760e682c5b964736f6c63430008150033",
  "immutableReferences": {},
  "source": "pragma solidity >= 0.4.16 < 0.9.0;\r\n\r\ncontract StudentListStorage {\r\n\r\n   // \r\n    struct Student {\r\n        uint id;\r\n        string name;\r\n        uint age;\r\n        address account;\r\n    }\r\n\r\n    // \r\n    Student[] public StudentList; // gettter()\r\n\r\n    //  2username,age\r\n    string  public name;\r\n    uint public  age;\r\n    \r\n    // struct string\r\n    function addList(string memory _name, uint _age) public returns (uint) {\r\n        uint count = StudentList.length;\r\n        uint index = count + 1;\r\n        // string memory a; // \r\n        StudentList.push(Student(index, _name, _age, msg.sender));\r\n        return StudentList.length;\r\n    }\r\n\r\n    // function test(uint x, uint y) public pure returns (uint) {\r\n    //     return x + y;\r\n    // }\r\n\r\n    // view  pure\r\n    function getList() public view returns (Student[] memory) {\r\n        Student[] memory list = StudentList;\r\n        return list;\r\n    }\r\n\r\n\r\n}",
  "sourcePath": "D:\\project\\idea_work\\own\\ganache-demo\\code\\contracts\\StudentListStorage.sol",
  "compiler": {
    "name": "solc",
    "version": "0.8.21+commit.d9974bed.Emscripten.clang"
  },
  "schemaVersion": "3.4.16",
  "updatedAt": "2025-09-08T11:57:28.446Z",
  "networkType": "ethereum",
  "devdoc": {
    "kind": "dev",
    "methods": {},
    "version": 1
  },
  "userdoc": {
    "kind": "user",
    "methods": {},
    "version": 1
  }
}