{
  "contractName": "StudentStorage",
  "abi": [
    {
      "inputs": [
        {
          "internalType": "uint256",
          "name": "",
          "type": "uint256"
        }
      ],
      "name": "StudentList",
      "outputs": [
        {
          "internalType": "uint256",
          "name": "id",
          "type": "uint256"
        },
        {
          "internalType": "string",
          "name": "name",
          "type": "string"
        },
        {
          "internalType": "uint256",
          "name": "age",
          "type": "uint256"
        }
      ],
      "stateMutability": "view",
      "type": "function"
    },
    {
      "inputs": [],
      "name": "age",
      "outputs": [
        {
          "internalType": "uint256",
          "name": "",
          "type": "uint256"
        }
      ],
      "stateMutability": "view",
      "type": "function"
    },
    {
      "inputs": [],
      "name": "name",
      "outputs": [
        {
          "internalType": "string",
          "name": "",
          "type": "string"
        }
      ],
      "stateMutability": "view",
      "type": "function"
    },
    {
      "inputs": [
        {
          "internalType": "string",
          "name": "_name",
          "type": "string"
        },
        {
          "internalType": "uint256",
          "name": "_age",
          "type": "uint256"
        }
      ],
      "name": "addList",
      "outputs": [
        {
          "internalType": "uint256",
          "name": "",
          "type": "uint256"
        }
      ],
      "stateMutability": "nonpayable",
      "type": "function"
    },
    {
      "inputs": [],
      "name": "getList",
      "outputs": [
        {
          "components": [
            {
              "internalType": "uint256",
              "name": "id",
              "type": "uint256"
            },
            {
              "internalType": "string",
              "name": "name",
              "type": "string"
            },
            {
              "internalType": "uint256",
              "name": "age",
              "type": "uint256"
            }
          ],
          "internalType": "struct StudentStorage.Student[]",
          "name": "",
          "type": "tuple[]"
        }
      ],
      "stateMutability": "view",
      "type": "function"
    }
  ],
  "bytecode": "0x608060405234801561001057600080fd5b50610c5f806100206000396000f3fe608060405234801561001057600080fd5b5060043610610074576000357c01000000000000000000000000000000000000000000000000000000009004806306fdde0314610079578063262a9dff146100975780636b29d35f146100b5578063942b765a146100e557806395bbc64e14610103575b600080fd5b610081610135565b60405161008e91906104c3565b60405180910390f35b61009f6101c3565b6040516100ac91906104fe565b60405180910390f35b6100cf60048036038101906100ca919061068e565b6101c9565b6040516100dc91906104fe565b60405180910390f35b6100ed610267565b6040516100fa9190610855565b60405180910390f35b61011d60048036038101906101189190610877565b610371565b60405161012c939291906108a4565b60405180910390f35b6001805461014290610911565b80601f016020809104026020016040519081016040528092919081815260200182805461016e90610911565b80156101bb5780601f10610190576101008083540402835291602001916101bb565b820191906000526020600020905b81548152906001019060200180831161019e57829003601f168201915b505050505081565b60025481565b600080600080549050905060006001826101e39190610971565b90506000604051806060016040528083815260200187815260200186815250908060018154018082558091505060019003906000526020600020906003020160009091909190915060008201518160000155602082015181600101908161024a9190610b57565b506040820151816002015550506000805490509250505092915050565b6060600080805480602002602001604051908101604052809291908181526020016000905b828210156103645783829060005260206000209060030201604051806060016040529081600082015481526020016001820180546102c990610911565b80601f01602080910402602001604051908101604052809291908181526020018280546102f590610911565b80156103425780601f1061031757610100808354040283529160200191610342565b820191906000526020600020905b81548152906001019060200180831161032557829003601f168201915b505050505081526020016002820154815250508152602001906001019061028c565b5050505090508091505090565b6000818154811061038157600080fd5b90600052602060002090600302016000915090508060000154908060010180546103aa90610911565b80601f01602080910402602001604051908101604052809291908181526020018280546103d690610911565b80156104235780601f106103f857610100808354040283529160200191610423565b820191906000526020600020905b81548152906001019060200180831161040657829003601f168201915b5050505050908060020154905083565b600081519050919050565b600082825260208201905092915050565b60005b8381101561046d578082015181840152602081019050610452565b60008484015250505050565b6000601f19601f8301169050919050565b600061049582610433565b61049f818561043e565b93506104af81856020860161044f565b6104b881610479565b840191505092915050565b600060208201905081810360008301526104dd818461048a565b905092915050565b6000819050919050565b6104f8816104e5565b82525050565b600060208201905061051360008301846104ef565b92915050565b6000604051905090565b600080fd5b600080fd5b600080fd5b600080fd5b7f4e487b7100000000000000000000000000000000000000000000000000000000600052604160045260246000fd5b61056f82610479565b810181811067ffffffffffffffff8211171561058e5761058d610537565b5b80604052505050565b60006105a1610519565b90506105ad8282610566565b919050565b600067ffffffffffffffff8211156105cd576105cc610537565b5b6105d682610479565b9050602081019050919050565b82818337600083830152505050565b6000610605610600846105b2565b610597565b90508281526020810184848401111561062157610620610532565b5b61062c8482856105e3565b509392505050565b600082601f8301126106495761064861052d565b5b81356106598482602086016105f2565b91505092915050565b61066b816104e5565b811461067657600080fd5b50565b60008135905061068881610662565b92915050565b600080604083850312156106a5576106a4610523565b5b600083013567ffffffffffffffff8111156106c3576106c2610528565b5b6106cf85828601610634565b92505060206106e085828601610679565b9150509250929050565b600081519050919050565b600082825260208201905092915050565b6000819050602082019050919050565b61071f816104e5565b82525050565b600082825260208201905092915050565b600061074182610433565b61074b8185610725565b935061075b81856020860161044f565b61076481610479565b840191505092915050565b60006060830160008301516107876000860182610716565b506020830151848203602086015261079f8282610736565b91505060408301516107b46040860182610716565b508091505092915050565b60006107cb838361076f565b905092915050565b6000602082019050919050565b60006107eb826106ea565b6107f581856106f5565b93508360208202850161080785610706565b8060005b85811015610843578484038952815161082485826107bf565b945061082f836107d3565b925060208a0199505060018101905061080b565b50829750879550505050505092915050565b6000602082019050818103600083015261086f81846107e0565b905092915050565b60006020828403121561088d5761088c610523565b5b600061089b84828501610679565b91505092915050565b60006060820190506108b960008301866104ef565b81810360208301526108cb818561048a565b90506108da60408301846104ef565b949350505050565b7f4e487b7100000000000000000000000000000000000000000000000000000000600052602260045260246000fd5b6000600282049050600182168061092957607f821691505b60208210810361093c5761093b6108e2565b5b50919050565b7f4e487b7100000000000000000000000000000000000000000000000000000000600052601160045260246000fd5b600061097c826104e5565b9150610987836104e5565b925082820190508082111561099f5761099e610942565b5b92915050565b60008190508160005260206000209050919050565b60006020601f8301049050919050565b60008160020a8302905092915050565b600060088302610a0a7fffffffffffffffffffffffffffffffffffffffffffffffffffffffffffffffff826109ca565b610a1486836109ca565b95508019841693508086168417925050509392505050565b6000819050919050565b6000610a51610a4c610a47846104e5565b610a2c565b6104e5565b9050919050565b6000819050919050565b610a6b83610a36565b610a7f610a7782610a58565b8484546109da565b825550505050565b600090565b610a94610a87565b610a9f818484610a62565b505050565b5b81811015610ac357610ab8600082610a8c565b600181019050610aa5565b5050565b601f821115610b0857610ad9816109a5565b610ae2846109ba565b81016020851015610af1578190505b610b05610afd856109ba565b830182610aa4565b50505b505050565b60008160020a8304905092915050565b6000610b2e60001984600802610b0d565b1980831691505092915050565b6000610b478383610b1d565b9150826002028217905092915050565b610b6082610433565b67ffffffffffffffff811115610b7957610b78610537565b5b610b838254610911565b610b8e828285610ac7565b600060209050601f831160018114610bc15760008415610baf578287015190505b610bb98582610b3b565b865550610c21565b601f198416610bcf866109a5565b60005b82811015610bf757848901518255600182019150602085019450602081019050610bd2565b86831015610c145784890151610c10601f891682610b1d565b8355505b6001600288020188555050505b50505050505056fea2646970667358221220ff75a51a457f08f4641169223608cac0943ef6bc8a725cfc4e8404f1c563290664736f6c63430008150033",
  "immutableReferences": {},
  "source": "pragma solidity >= 0.4.16 < 0.9.0;\r\n\r\ncontract StudentStorage {\r\n\r\n   // \r\n    struct Student {\r\n        uint id;\r\n        string name;\r\n        uint age;\r\n    }\r\n\r\n    // \r\n    Student[] public StudentList; // gettter()\r\n\r\n    //  2username,age\r\n    string  public name;\r\n    uint public  age;\r\n    \r\n    // struct string\r\n    function addList(string memory _name, uint _age) public returns (uint) {\r\n        uint count = StudentList.length;\r\n        uint index = count + 1;\r\n        // string memory a; // \r\n        StudentList.push(Student(index, _name, _age));\r\n        return StudentList.length;\r\n    }\r\n\r\n    // function test(uint x, uint y) public pure returns (uint) {\r\n    //     return x + y;\r\n    // }\r\n\r\n    // view  pure\r\n    function getList() public view returns (Student[] memory) {\r\n        Student[] memory list = StudentList;\r\n        return list;\r\n    }\r\n\r\n\r\n}",
  "sourcePath": "D:\\project\\idea_work\\own\\ganache-demo\\code\\contracts\\StudentStorage.sol",
  "compiler": {
    "name": "solc",
    "version": "0.8.21+commit.d9974bed.Emscripten.clang"
  },
  "schemaVersion": "3.4.16",
  "updatedAt": "2025-09-08T02:17:11.440Z",
  "devdoc": {
    "kind": "dev",
    "methods": {},
    "version": 1
  },
  "userdoc": {
    "kind": "user",
    "methods": {},
    "version": 1
  }
}